{
  "_format": "hh3-artifact-1",
  "contractName": "PresaleVault",
  "sourceName": "contracts/PresaleVault.sol",
  "abi": [
    {
      "inputs": [
        {
          "internalType": "address",
          "name": "_tokenAddress",
          "type": "address"
        },
        {
          "internalType": "uint256",
          "name": "_preSeedPrice",
          "type": "uint256"
        },
        {
          "internalType": "uint256",
          "name": "_seedPrice",
          "type": "uint256"
        },
        {
          "internalType": "uint256",
          "name": "_publicPrice",
          "type": "uint256"
        }
      ],
      "stateMutability": "nonpayable",
      "type": "constructor"
    },
    {
      "inputs": [
        {
          "internalType": "address",
          "name": "owner",
          "type": "address"
        }
      ],
      "name": "OwnableInvalidOwner",
      "type": "error"
    },
    {
      "inputs": [
        {
          "internalType": "address",
          "name": "account",
          "type": "address"
        }
      ],
      "name": "OwnableUnauthorizedAccount",
      "type": "error"
    },
    {
      "inputs": [],
      "name": "ReentrancyGuardReentrantCall",
      "type": "error"
    },
    {
      "anonymous": false,
      "inputs": [
        {
          "indexed": true,
          "internalType": "address",
          "name": "previousOwner",
          "type": "address"
        },
        {
          "indexed": true,
          "internalType": "address",
          "name": "newOwner",
          "type": "address"
        }
      ],
      "name": "OwnershipTransferred",
      "type": "event"
    },
    {
      "anonymous": false,
      "inputs": [
        {
          "indexed": false,
          "internalType": "enum PresaleVault.Round",
          "name": "round",
          "type": "uint8"
        }
      ],
      "name": "RoundClosed",
      "type": "event"
    },
    {
      "anonymous": false,
      "inputs": [
        {
          "indexed": false,
          "internalType": "enum PresaleVault.Round",
          "name": "round",
          "type": "uint8"
        }
      ],
      "name": "RoundOpened",
      "type": "event"
    },
    {
      "anonymous": false,
      "inputs": [
        {
          "indexed": true,
          "internalType": "address",
          "name": "buyer",
          "type": "address"
        },
        {
          "indexed": false,
          "internalType": "uint256",
          "name": "amountPaid",
          "type": "uint256"
        },
        {
          "indexed": false,
          "internalType": "uint256",
          "name": "tokensAllocated",
          "type": "uint256"
        },
        {
          "indexed": false,
          "internalType": "enum PresaleVault.Round",
          "name": "round",
          "type": "uint8"
        }
      ],
      "name": "TokensPurchased",
      "type": "event"
    },
    {
      "anonymous": false,
      "inputs": [
        {
          "indexed": true,
          "internalType": "address",
          "name": "beneficiary",
          "type": "address"
        },
        {
          "indexed": false,
          "internalType": "uint256",
          "name": "amount",
          "type": "uint256"
        }
      ],
      "name": "VestingClaimed",
      "type": "event"
    },
    {
      "inputs": [],
      "name": "MONTH_IN_SECONDS",
      "outputs": [
        {
          "internalType": "uint256",
          "name": "",
          "type": "uint256"
        }
      ],
      "stateMutability": "view",
      "type": "function"
    },
    {
      "inputs": [
        {
          "internalType": "bytes32[]",
          "name": "merkleProof",
          "type": "bytes32[]"
        }
      ],
      "name": "buyTokens",
      "outputs": [],
      "stateMutability": "payable",
      "type": "function"
    },
    {
      "inputs": [],
      "name": "claimVested",
      "outputs": [],
      "stateMutability": "nonpayable",
      "type": "function"
    },
    {
      "inputs": [],
      "name": "cliffDuration",
      "outputs": [
        {
          "internalType": "uint256",
          "name": "",
          "type": "uint256"
        }
      ],
      "stateMutability": "view",
      "type": "function"
    },
    {
      "inputs": [],
      "name": "currentRound",
      "outputs": [
        {
          "internalType": "enum PresaleVault.Round",
          "name": "",
          "type": "uint8"
        }
      ],
      "stateMutability": "view",
      "type": "function"
    },
    {
      "inputs": [
        {
          "internalType": "address",
          "name": "account",
          "type": "address"
        }
      ],
      "name": "getVestedAmount",
      "outputs": [
        {
          "internalType": "uint256",
          "name": "",
          "type": "uint256"
        }
      ],
      "stateMutability": "view",
      "type": "function"
    },
    {
      "inputs": [],
      "name": "owner",
      "outputs": [
        {
          "internalType": "address",
          "name": "",
          "type": "address"
        }
      ],
      "stateMutability": "view",
      "type": "function"
    },
    {
      "inputs": [],
      "name": "preSeedMerkleRoot",
      "outputs": [
        {
          "internalType": "bytes32",
          "name": "",
          "type": "bytes32"
        }
      ],
      "stateMutability": "view",
      "type": "function"
    },
    {
      "inputs": [],
      "name": "preSeedPrice",
      "outputs": [
        {
          "internalType": "uint256",
          "name": "",
          "type": "uint256"
        }
      ],
      "stateMutability": "view",
      "type": "function"
    },
    {
      "inputs": [],
      "name": "publicPrice",
      "outputs": [
        {
          "internalType": "uint256",
          "name": "",
          "type": "uint256"
        }
      ],
      "stateMutability": "view",
      "type": "function"
    },
    {
      "inputs": [],
      "name": "renounceOwnership",
      "outputs": [],
      "stateMutability": "nonpayable",
      "type": "function"
    },
    {
      "inputs": [],
      "name": "seedMerkleRoot",
      "outputs": [
        {
          "internalType": "bytes32",
          "name": "",
          "type": "bytes32"
        }
      ],
      "stateMutability": "view",
      "type": "function"
    },
    {
      "inputs": [],
      "name": "seedPrice",
      "outputs": [
        {
          "internalType": "uint256",
          "name": "",
          "type": "uint256"
        }
      ],
      "stateMutability": "view",
      "type": "function"
    },
    {
      "inputs": [
        {
          "internalType": "bytes32",
          "name": "_preSeedMerkleRoot",
          "type": "bytes32"
        },
        {
          "internalType": "bytes32",
          "name": "_seedMerkleRoot",
          "type": "bytes32"
        }
      ],
      "name": "setMerkleRoots",
      "outputs": [],
      "stateMutability": "nonpayable",
      "type": "function"
    },
    {
      "inputs": [
        {
          "internalType": "enum PresaleVault.Round",
          "name": "newRound",
          "type": "uint8"
        }
      ],
      "name": "setRound",
      "outputs": [],
      "stateMutability": "nonpayable",
      "type": "function"
    },
    {
      "inputs": [
        {
          "internalType": "uint256",
          "name": "_vestingStartTime",
          "type": "uint256"
        },
        {
          "internalType": "uint256",
          "name": "_cliffDuration",
          "type": "uint256"
        },
        {
          "internalType": "uint256",
          "name": "_vestingDuration",
          "type": "uint256"
        }
      ],
      "name": "setVestingParams",
      "outputs": [],
      "stateMutability": "nonpayable",
      "type": "function"
    },
    {
      "inputs": [],
      "name": "token",
      "outputs": [
        {
          "internalType": "contract IERC20",
          "name": "",
          "type": "address"
        }
      ],
      "stateMutability": "view",
      "type": "function"
    },
    {
      "inputs": [],
      "name": "totalAllocatedTokens",
      "outputs": [
        {
          "internalType": "uint256",
          "name": "",
          "type": "uint256"
        }
      ],
      "stateMutability": "view",
      "type": "function"
    },
    {
      "inputs": [
        {
          "internalType": "address",
          "name": "newOwner",
          "type": "address"
        }
      ],
      "name": "transferOwnership",
      "outputs": [],
      "stateMutability": "nonpayable",
      "type": "function"
    },
    {
      "inputs": [],
      "name": "vestingDuration",
      "outputs": [
        {
          "internalType": "uint256",
          "name": "",
          "type": "uint256"
        }
      ],
      "stateMutability": "view",
      "type": "function"
    },
    {
      "inputs": [
        {
          "internalType": "address",
          "name": "",
          "type": "address"
        }
      ],
      "name": "vestingSchedules",
      "outputs": [
        {
          "internalType": "uint256",
          "name": "totalAllocated",
          "type": "uint256"
        },
        {
          "internalType": "uint256",
          "name": "totalClaimed",
          "type": "uint256"
        }
      ],
      "stateMutability": "view",
      "type": "function"
    },
    {
      "inputs": [],
      "name": "vestingStartTime",
      "outputs": [
        {
          "internalType": "uint256",
          "name": "",
          "type": "uint256"
        }
      ],
      "stateMutability": "view",
      "type": "function"
    },
    {
      "inputs": [],
      "name": "withdrawFunds",
      "outputs": [],
      "stateMutability": "nonpayable",
      "type": "function"
    },
    {
      "inputs": [],
      "name": "withdrawUnsoldTokens",
      "outputs": [],
      "stateMutability": "nonpayable",
      "type": "function"
    }
  ],
  "bytecode": "0x60a060405234801561001057600080fd5b5060405161170938038061170983398101604081905261002f916101b1565b338061005657604051631e4fbdf760e01b8152600060048201526024015b60405180910390fd5b61005f81610161565b5060017f9b779b17422d0df92223018b32b4d1fa46e071723d6817e2486d003becc55f00556001600160a01b0384166100da5760405162461bcd60e51b815260206004820152601560248201527f496e76616c696420746f6b656e20616464726573730000000000000000000000604482015260640161004d565b6000831180156100ea5750600082115b80156100f65750600081115b6101375760405162461bcd60e51b81526020600482015260126024820152710507269636573206d757374206265203e20360741b604482015260640161004d565b6001600160a01b03939093166080526001919091556002556003556006805460ff191690556101fc565b600080546001600160a01b038381166001600160a01b0319831681178455604051919092169283917f8be0079c531659141344cd1fd0a4f28419497f9722a3daafe3b4186f6b6457e09190a35050565b600080600080608085870312156101c757600080fd5b84516001600160a01b03811681146101de57600080fd5b60208601516040870151606090970151919890975090945092505050565b6080516114d6610233600039600081816103b4015281816108cf01528181610a3501528181610b1b0152610dfe01526114d66000f3fe60806040526004361061014b5760003560e01c8063a945bf80116100b6578063d01c44cd1161006f578063d01c44cd14610337578063d5a73fdd1461034c578063d85349f71461036c578063f2fde38b14610382578063fc0c546a146103a2578063fdb20ccb146103d657600080fd5b8063a945bf80146102ad578063ab98089f146102c3578063bc8287b5146102d6578063c56a494e146102ec578063c8bdbfb614610302578063cbd5bb2b1461031757600080fd5b80637171225c116101085780637171225c146101f15780637e34cd3d146102085780638a19c8bc1461021e5780638da5cb5b146102455780639a48eb5114610277578063a8660a781461029757600080fd5b80630c195d991461015057806311d98f54146101795780631514617e1461018f57806324600fc3146101a55780632b2f4d84146101bc578063715018a6146101dc575b600080fd5b34801561015c57600080fd5b50610166600a5481565b6040519081526020015b60405180910390f35b34801561018557600080fd5b5061016660015481565b34801561019b57600080fd5b5061016660095481565b3480156101b157600080fd5b506101ba61041f565b005b3480156101c857600080fd5b506101ba6101d736600461124a565b6104ff565b3480156101e857600080fd5b506101ba610565565b3480156101fd57600080fd5b5061016662278d0081565b34801561021457600080fd5b5061016660025481565b34801561022a57600080fd5b506006546102389060ff1681565b60405161017091906112ae565b34801561025157600080fd5b506000546001600160a01b03165b6040516001600160a01b039091168152602001610170565b34801561028357600080fd5b506101ba6102923660046112bc565b610579565b3480156102a357600080fd5b5061016660075481565b3480156102b957600080fd5b5061016660035481565b6101ba6102d13660046112de565b61058c565b3480156102e257600080fd5b5061016660045481565b3480156102f857600080fd5b5061016660055481565b34801561030e57600080fd5b506101ba610a15565b34801561032357600080fd5b506101ba610332366004611355565b610bd4565b34801561034357600080fd5b506101ba610cb2565b34801561035857600080fd5b50610166610367366004611376565b610f06565b34801561037857600080fd5b5061016660085481565b34801561038e57600080fd5b506101ba61039d366004611376565b61101f565b3480156103ae57600080fd5b5061025f7f000000000000000000000000000000000000000000000000000000000000000081565b3480156103e257600080fd5b5061040a6103f1366004611376565b600b602052600090815260409020805460019091015482565b60408051928352602083019190915201610170565b61042761105a565b47806104715760405162461bcd60e51b81526020600482015260146024820152734e6f2066756e647320746f20776974686472617760601b60448201526064015b60405180910390fd5b604051600090339083908381818185875af1925050503d80600081146104b3576040519150601f19603f3d011682016040523d82523d6000602084013e6104b8565b606091505b50509050806104fb5760405162461bcd60e51b815260206004820152600f60248201526e15da5d1a191c985dc819985a5b1959608a1b6044820152606401610468565b5050565b61050761105a565b600081116105575760405162461bcd60e51b815260206004820152601c60248201527f56657374696e67206475726174696f6e206d757374206265203e2030000000006044820152606401610468565b600792909255600855600955565b61056d61105a565b6105776000611087565b565b61058161105a565b600491909155600555565b6105946110d7565b60065460ff1660008160038111156105ae576105ae611276565b036105f35760405162461bcd60e51b815260206004820152601560248201527450726573616c65206973206e6f742061637469766560581b6044820152606401610468565b600034116106375760405162461bcd60e51b815260206004820152601160248201527026bab9ba1039b2b7321022aa2417a1272160791b6044820152606401610468565b6000600182600381111561064d5761064d611276565b03610721576004546106a15760405162461bcd60e51b815260206004820152601b60248201527f5072652d736565642077686974656c6973742064697361626c656400000000006044820152606401610468565b6106af3385856004546110f3565b6106fb5760405162461bcd60e51b815260206004820152601960248201527f4e6f7420696e207072652d736565642077686974656c697374000000000000006044820152606401610468565b60015461071034670de0b6b3a76400006113b5565b61071a91906113cc565b9050610856565b600282600381111561073557610735611276565b036107f0576005546107895760405162461bcd60e51b815260206004820152601760248201527f536565642077686974656c6973742064697361626c65640000000000000000006044820152606401610468565b6107973385856005546110f3565b6107db5760405162461bcd60e51b8152602060048201526015602482015274139bdd081a5b881cd95959081dda1a5d195b1a5cdd605a1b6044820152606401610468565b60025461071034670de0b6b3a76400006113b5565b600382600381111561080457610804611276565b0361081e5760035461071034670de0b6b3a76400006113b5565b60405162461bcd60e51b815260206004820152600d60248201526c155b9adb9bdddb881c9bdd5b99609a1b6044820152606401610468565b6000811161089d5760405162461bcd60e51b8152602060048201526014602482015273125b9cdd59999a58da595b9d081c185e5b595b9d60621b6044820152606401610468565b600081600a546108ad91906113ee565b6040516370a0823160e01b815230600482015290915081906001600160a01b037f000000000000000000000000000000000000000000000000000000000000000016906370a0823190602401602060405180830381865afa158015610916573d6000803e3d6000fd5b505050506040513d601f19601f8201168201806040525081019061093a9190611401565b10156109945760405162461bcd60e51b815260206004820152602360248201527f496e73756666696369656e7420636f6e7472616374207661756c742062616c616044820152626e636560e81b6064820152608401610468565b600a819055336000908152600b6020526040812080548492906109b89084906113ee565b909155505060405133907f07bd967119635e499edb871f00e988945fc967531c4dfa79a630a18ed98cf1eb906109f39034908690889061141a565b60405180910390a25050506104fb600160008051602061148183398151915255565b610a1d61105a565b6040516370a0823160e01b81523060048201526000907f00000000000000000000000000000000000000000000000000000000000000006001600160a01b0316906370a0823190602401602060405180830381865afa158015610a84573d6000803e3d6000fd5b505050506040513d601f19601f82011682018060405250810190610aa89190611401565b90506000600a5482610aba9190611435565b905060008111610aff5760405162461bcd60e51b815260206004820152601060248201526f4e6f20756e736f6c6420746f6b656e7360801b6044820152606401610468565b60405163a9059cbb60e01b8152336004820152602481018290527f00000000000000000000000000000000000000000000000000000000000000006001600160a01b03169063a9059cbb906044016020604051808303816000875af1158015610b6c573d6000803e3d6000fd5b505050506040513d601f19601f82011682018060405250810190610b909190611448565b6104fb5760405162461bcd60e51b8152602060048201526015602482015274151bdad95b881d1c985b9cd9995c8819985a5b1959605a1b6044820152606401610468565b610bdc61105a565b600060065460ff166003811115610bf557610bf5611276565b14610c3a576006546040517f119af92bd6e03b95e0353ae7fbc76a36311cc601882e288fdfb2f48428a9f01c91610c319160ff909116906112ae565b60405180910390a15b6006805482919060ff19166001836003811115610c5957610c59611276565b02179055506000816003811115610c7257610c72611276565b14610caf577f63376ab9df75a8554f68db0f200649c4da59cd621fb3ba9e7d707454c6df77ec81604051610ca691906112ae565b60405180910390a15b50565b610cba6110d7565b600060075411610d055760405162461bcd60e51b815260206004820152601660248201527515995cdd1a5b99c81b9bdd0818dbdb999a59dd5c995960521b6044820152606401610468565b336000908152600b602052604090208054610d585760405162461bcd60e51b8152602060048201526013602482015272139bc81d1bdad95b9cc8185b1b1bd8d85d1959606a1b6044820152606401610468565b6000610d6333610f06565b90506000826001015482610d779190611435565b905060008111610dc95760405162461bcd60e51b815260206004820152601f60248201527f4e6f7468696e6720746f20636c61696d2061742074686973206d6f6d656e74006044820152606401610468565b80836001016000828254610ddd91906113ee565b909155505060405163a9059cbb60e01b8152336004820152602481018290527f00000000000000000000000000000000000000000000000000000000000000006001600160a01b03169063a9059cbb906044016020604051808303816000875af1158015610e4f573d6000803e3d6000fd5b505050506040513d601f19601f82011682018060405250810190610e739190611448565b610eb75760405162461bcd60e51b8152602060048201526015602482015274151bdad95b881d1c985b9cd9995c8819985a5b1959605a1b6044820152606401610468565b60405181815233907f9fe9b7be9d151c7a8b6de49a1312ff27a15096d0d1d12999af85fe4310e0b1259060200160405180910390a2505050610577600160008051602061148183398151915255565b6001600160a01b0381166000908152600b602090815260408083208151808301909252805480835260019091015492820192909252908203610f4b5750600092915050565b6007541580610f685750600854600754610f6591906113ee565b42105b15610f765750600092915050565b600954600854600754610f8991906113ee565b610f9391906113ee565b4210610fa0575192915050565b6000600854600754610fb291906113ee565b610fbc9042611435565b90506000610fcd62278d00836113cc565b9050600062278d00600954610fe291906113cc565b905080600003611010576009548451610ffc9085906113b5565b61100691906113cc565b9695505050505050565b83518190610ffc9084906113b5565b61102761105a565b6001600160a01b03811661105157604051631e4fbdf760e01b815260006004820152602401610468565b610caf81611087565b6000546001600160a01b031633146105775760405163118cdaa760e01b8152336004820152602401610468565b600080546001600160a01b038381166001600160a01b0319831681178455604051919092169283917f8be0079c531659141344cd1fd0a4f28419497f9722a3daafe3b4186f6b6457e09190a35050565b6110df61118d565b600260008051602061148183398151915255565b604080516001600160a01b038616602082015260009182910160408051601f19818403018152828252805160209182012090830152016040516020818303038152906040528051906020012090506111818585808060200260200160405190810160405280939291908181526020018383602002808284376000920191909152508792508591506111bd9050565b9150505b949350505050565b6000805160206114818339815191525460020361057757604051633ee5aeb560e01b815260040160405180910390fd5b6000826111ca85846111d3565b14949350505050565b600081815b845181101561120e57611204828683815181106111f7576111f761146a565b6020026020010151611218565b91506001016111d8565b5090505b92915050565b6000818310611234576000828152602084905260409020611243565b60008381526020839052604090205b9392505050565b60008060006060848603121561125f57600080fd5b505081359360208301359350604090920135919050565b634e487b7160e01b600052602160045260246000fd5b600481106112aa57634e487b7160e01b600052602160045260246000fd5b9052565b60208101611212828461128c565b600080604083850312156112cf57600080fd5b50508035926020909101359150565b600080602083850312156112f157600080fd5b823567ffffffffffffffff81111561130857600080fd5b8301601f8101851361131957600080fd5b803567ffffffffffffffff81111561133057600080fd5b8560208260051b840101111561134557600080fd5b6020919091019590945092505050565b60006020828403121561136757600080fd5b81356004811061124357600080fd5b60006020828403121561138857600080fd5b81356001600160a01b038116811461124357600080fd5b634e487b7160e01b600052601160045260246000fd5b80820281158282048414176112125761121261139f565b6000826113e957634e487b7160e01b600052601260045260246000fd5b500490565b808201808211156112125761121261139f565b60006020828403121561141357600080fd5b5051919050565b8381526020810183905260608101611185604083018461128c565b818103818111156112125761121261139f565b60006020828403121561145a57600080fd5b8151801515811461124357600080fd5b634e487b7160e01b600052603260045260246000fdfe9b779b17422d0df92223018b32b4d1fa46e071723d6817e2486d003becc55f00a264697066735822122054e366478d237a7227a2b536eaa643cf625c69465e6e7f22e406836bf9b8dabd64736f6c634300081c0033",
  "linkReferences": {},
  "deployedLinkReferences": {},
  "immutableReferences": {
    "1623": [
      {
        "length": 32,
        "start": 948
      },
      {
        "length": 32,
        "start": 2255
      },
      {
        "length": 32,
        "start": 2613
      },
      {
        "length": 32,
        "start": 2843
      },
      {
        "length": 32,
        "start": 3582
      }
    ]
  },
  "inputSourceName": "project/contracts/PresaleVault.sol",
  "buildInfoId": "solc-0_8_28-055ce74ab963fe7029b9d97cbcf5818cd2845936"
}