{
  "_format": "hh3-artifact-1",
  "contractName": "VaultXStaking",
  "sourceName": "contracts/VaultXStaking.sol",
  "abi": [
    {
      "inputs": [
        {
          "internalType": "address",
          "name": "_stakingToken",
          "type": "address"
        },
        {
          "internalType": "address",
          "name": "_rewardToken",
          "type": "address"
        },
        {
          "internalType": "address",
          "name": "_treasury",
          "type": "address"
        },
        {
          "internalType": "uint256",
          "name": "_baseRewardPerBlockPerToken",
          "type": "uint256"
        }
      ],
      "stateMutability": "nonpayable",
      "type": "constructor"
    },
    {
      "inputs": [
        {
          "internalType": "address",
          "name": "owner",
          "type": "address"
        }
      ],
      "name": "OwnableInvalidOwner",
      "type": "error"
    },
    {
      "inputs": [
        {
          "internalType": "address",
          "name": "account",
          "type": "address"
        }
      ],
      "name": "OwnableUnauthorizedAccount",
      "type": "error"
    },
    {
      "inputs": [],
      "name": "ReentrancyGuardReentrantCall",
      "type": "error"
    },
    {
      "anonymous": false,
      "inputs": [
        {
          "indexed": false,
          "internalType": "uint256",
          "name": "newRate",
          "type": "uint256"
        }
      ],
      "name": "BaseRewardRateUpdated",
      "type": "event"
    },
    {
      "anonymous": false,
      "inputs": [
        {
          "indexed": true,
          "internalType": "address",
          "name": "previousOwner",
          "type": "address"
        },
        {
          "indexed": true,
          "internalType": "address",
          "name": "newOwner",
          "type": "address"
        }
      ],
      "name": "OwnershipTransferred",
      "type": "event"
    },
    {
      "anonymous": false,
      "inputs": [
        {
          "indexed": true,
          "internalType": "address",
          "name": "user",
          "type": "address"
        },
        {
          "indexed": false,
          "internalType": "uint256",
          "name": "positionId",
          "type": "uint256"
        },
        {
          "indexed": false,
          "internalType": "uint256",
          "name": "rewardAmount",
          "type": "uint256"
        }
      ],
      "name": "RewardsClaimed",
      "type": "event"
    },
    {
      "anonymous": false,
      "inputs": [
        {
          "indexed": true,
          "internalType": "address",
          "name": "user",
          "type": "address"
        },
        {
          "indexed": false,
          "internalType": "uint256",
          "name": "positionId",
          "type": "uint256"
        },
        {
          "indexed": false,
          "internalType": "uint256",
          "name": "amount",
          "type": "uint256"
        },
        {
          "indexed": false,
          "internalType": "uint256",
          "name": "lockDuration",
          "type": "uint256"
        }
      ],
      "name": "Staked",
      "type": "event"
    },
    {
      "anonymous": false,
      "inputs": [
        {
          "indexed": false,
          "internalType": "address",
          "name": "newTreasury",
          "type": "address"
        }
      ],
      "name": "TreasuryUpdated",
      "type": "event"
    },
    {
      "anonymous": false,
      "inputs": [
        {
          "indexed": true,
          "internalType": "address",
          "name": "user",
          "type": "address"
        },
        {
          "indexed": false,
          "internalType": "uint256",
          "name": "positionId",
          "type": "uint256"
        },
        {
          "indexed": false,
          "internalType": "uint256",
          "name": "amount",
          "type": "uint256"
        },
        {
          "indexed": false,
          "internalType": "uint256",
          "name": "penaltyAmount",
          "type": "uint256"
        }
      ],
      "name": "Unstaked",
      "type": "event"
    },
    {
      "inputs": [],
      "name": "BPS_DENOMINATOR",
      "outputs": [
        {
          "internalType": "uint256",
          "name": "",
          "type": "uint256"
        }
      ],
      "stateMutability": "view",
      "type": "function"
    },
    {
      "inputs": [],
      "name": "EARLY_EXIT_PENALTY_BPS",
      "outputs": [
        {
          "internalType": "uint256",
          "name": "",
          "type": "uint256"
        }
      ],
      "stateMutability": "view",
      "type": "function"
    },
    {
      "inputs": [],
      "name": "LOCK_180_DAYS",
      "outputs": [
        {
          "internalType": "uint256",
          "name": "",
          "type": "uint256"
        }
      ],
      "stateMutability": "view",
      "type": "function"
    },
    {
      "inputs": [],
      "name": "LOCK_30_DAYS",
      "outputs": [
        {
          "internalType": "uint256",
          "name": "",
          "type": "uint256"
        }
      ],
      "stateMutability": "view",
      "type": "function"
    },
    {
      "inputs": [],
      "name": "LOCK_90_DAYS",
      "outputs": [
        {
          "internalType": "uint256",
          "name": "",
          "type": "uint256"
        }
      ],
      "stateMutability": "view",
      "type": "function"
    },
    {
      "inputs": [],
      "name": "baseRewardPerBlockPerToken",
      "outputs": [
        {
          "internalType": "uint256",
          "name": "",
          "type": "uint256"
        }
      ],
      "stateMutability": "view",
      "type": "function"
    },
    {
      "inputs": [
        {
          "internalType": "uint256",
          "name": "positionId",
          "type": "uint256"
        }
      ],
      "name": "claimRewards",
      "outputs": [],
      "stateMutability": "nonpayable",
      "type": "function"
    },
    {
      "inputs": [
        {
          "internalType": "uint256",
          "name": "amount",
          "type": "uint256"
        }
      ],
      "name": "fundRewardPool",
      "outputs": [],
      "stateMutability": "nonpayable",
      "type": "function"
    },
    {
      "inputs": [
        {
          "internalType": "address",
          "name": "user",
          "type": "address"
        }
      ],
      "name": "getUserPositions",
      "outputs": [
        {
          "components": [
            {
              "internalType": "uint256",
              "name": "positionId",
              "type": "uint256"
            },
            {
              "internalType": "address",
              "name": "owner",
              "type": "address"
            },
            {
              "internalType": "uint256",
              "name": "amount",
              "type": "uint256"
            },
            {
              "internalType": "uint256",
              "name": "lockDuration",
              "type": "uint256"
            },
            {
              "internalType": "uint256",
              "name": "startTimestamp",
              "type": "uint256"
            },
            {
              "internalType": "uint256",
              "name": "endTimestamp",
              "type": "uint256"
            },
            {
              "internalType": "uint256",
              "name": "lastRewardBlock",
              "type": "uint256"
            },
            {
              "internalType": "uint256",
              "name": "multiplier",
              "type": "uint256"
            },
            {
              "internalType": "bool",
              "name": "isOpen",
              "type": "bool"
            }
          ],
          "internalType": "struct VaultXStaking.Position[]",
          "name": "",
          "type": "tuple[]"
        }
      ],
      "stateMutability": "view",
      "type": "function"
    },
    {
      "inputs": [],
      "name": "owner",
      "outputs": [
        {
          "internalType": "address",
          "name": "",
          "type": "address"
        }
      ],
      "stateMutability": "view",
      "type": "function"
    },
    {
      "inputs": [
        {
          "internalType": "address",
          "name": "user",
          "type": "address"
        },
        {
          "internalType": "uint256",
          "name": "positionId",
          "type": "uint256"
        }
      ],
      "name": "pendingRewards",
      "outputs": [
        {
          "internalType": "uint256",
          "name": "",
          "type": "uint256"
        }
      ],
      "stateMutability": "view",
      "type": "function"
    },
    {
      "inputs": [],
      "name": "renounceOwnership",
      "outputs": [],
      "stateMutability": "nonpayable",
      "type": "function"
    },
    {
      "inputs": [],
      "name": "rewardToken",
      "outputs": [
        {
          "internalType": "contract IERC20",
          "name": "",
          "type": "address"
        }
      ],
      "stateMutability": "view",
      "type": "function"
    },
    {
      "inputs": [
        {
          "internalType": "uint256",
          "name": "newRate",
          "type": "uint256"
        }
      ],
      "name": "setBaseRewardRate",
      "outputs": [],
      "stateMutability": "nonpayable",
      "type": "function"
    },
    {
      "inputs": [
        {
          "internalType": "address",
          "name": "newTreasury",
          "type": "address"
        }
      ],
      "name": "setTreasury",
      "outputs": [],
      "stateMutability": "nonpayable",
      "type": "function"
    },
    {
      "inputs": [
        {
          "internalType": "uint256",
          "name": "amount",
          "type": "uint256"
        },
        {
          "internalType": "uint256",
          "name": "lockPeriod",
          "type": "uint256"
        }
      ],
      "name": "stake",
      "outputs": [],
      "stateMutability": "nonpayable",
      "type": "function"
    },
    {
      "inputs": [],
      "name": "stakingToken",
      "outputs": [
        {
          "internalType": "contract IERC20",
          "name": "",
          "type": "address"
        }
      ],
      "stateMutability": "view",
      "type": "function"
    },
    {
      "inputs": [],
      "name": "totalStaked",
      "outputs": [
        {
          "internalType": "uint256",
          "name": "",
          "type": "uint256"
        }
      ],
      "stateMutability": "view",
      "type": "function"
    },
    {
      "inputs": [
        {
          "internalType": "address",
          "name": "newOwner",
          "type": "address"
        }
      ],
      "name": "transferOwnership",
      "outputs": [],
      "stateMutability": "nonpayable",
      "type": "function"
    },
    {
      "inputs": [],
      "name": "treasury",
      "outputs": [
        {
          "internalType": "address",
          "name": "",
          "type": "address"
        }
      ],
      "stateMutability": "view",
      "type": "function"
    },
    {
      "inputs": [
        {
          "internalType": "uint256",
          "name": "positionId",
          "type": "uint256"
        }
      ],
      "name": "unstake",
      "outputs": [],
      "stateMutability": "nonpayable",
      "type": "function"
    },
    {
      "inputs": [
        {
          "internalType": "address",
          "name": "",
          "type": "address"
        },
        {
          "internalType": "uint256",
          "name": "",
          "type": "uint256"
        }
      ],
      "name": "userPositions",
      "outputs": [
        {
          "internalType": "uint256",
          "name": "positionId",
          "type": "uint256"
        },
        {
          "internalType": "address",
          "name": "owner",
          "type": "address"
        },
        {
          "internalType": "uint256",
          "name": "amount",
          "type": "uint256"
        },
        {
          "internalType": "uint256",
          "name": "lockDuration",
          "type": "uint256"
        },
        {
          "internalType": "uint256",
          "name": "startTimestamp",
          "type": "uint256"
        },
        {
          "internalType": "uint256",
          "name": "endTimestamp",
          "type": "uint256"
        },
        {
          "internalType": "uint256",
          "name": "lastRewardBlock",
          "type": "uint256"
        },
        {
          "internalType": "uint256",
          "name": "multiplier",
          "type": "uint256"
        },
        {
          "internalType": "bool",
          "name": "isOpen",
          "type": "bool"
        }
      ],
      "stateMutability": "view",
      "type": "function"
    }
  ],
  "bytecode": "0x60c060405234801561001057600080fd5b5060405161183638038061183683398101604081905261002f91610217565b338061005657604051631e4fbdf760e01b8152600060048201526024015b60405180910390fd5b61005f816101ab565b5060017f9b779b17422d0df92223018b32b4d1fa46e071723d6817e2486d003becc55f00556001600160a01b0384166100da5760405162461bcd60e51b815260206004820152601560248201527f496e76616c6964207374616b696e6720746f6b656e0000000000000000000000604482015260640161004d565b6001600160a01b0383166101305760405162461bcd60e51b815260206004820152601460248201527f496e76616c69642072657761726420746f6b656e000000000000000000000000604482015260640161004d565b6001600160a01b0382166101795760405162461bcd60e51b815260206004820152601060248201526f496e76616c696420747265617375727960801b604482015260640161004d565b6001600160a01b0393841660805291831660a052600180546001600160a01b0319169190931617909155600255610262565b600080546001600160a01b038381166001600160a01b0319831681178455604051919092169283917f8be0079c531659141344cd1fd0a4f28419497f9722a3daafe3b4186f6b6457e09190a35050565b80516001600160a01b038116811461021257600080fd5b919050565b6000806000806080858703121561022d57600080fd5b610236856101fb565b9350610244602086016101fb565b9250610252604086016101fb565b6060959095015193969295505050565b60805160a0516115856102b16000396000818161032b0152818161047f015281816105ff015261089601526000818161027701528181610a2501528181610afa0152610efe01526115856000f3fe608060405234801561001057600080fd5b50600436106101425760003560e01c80637b0472f0116100b8578063e1a452181161007c578063e1a45218146102da578063e37c3a55146102e3578063f0a9abe7146102ed578063f0f4426014610300578063f2fde38b14610313578063f7c618c11461032657600080fd5b80637b0472f0146102995780637c6e5db7146102ac578063817b1cd2146102b657806382865218146102bf5780638da5cb5b146102c957600080fd5b80635c82a1121161010a5780635c82a112146101c25780635e1b4d99146101cb5780636099ecb21461022c57806361d027b31461023f578063715018a61461026a57806372f702f31461027257600080fd5b80630962ef79146101475780631d583e0d1461015c5780632a6bc2dd1461016f5780632e17de78146101985780633e169fea146101ab575b600080fd5b61015a61015536600461130d565b61034d565b005b61015a61016a36600461130d565b610590565b61018261017d366004611342565b6106c9565b60405161018f9190611364565b60405180910390f35b61015a6101a636600461130d565b6107a2565b6101b460025481565b60405190815260200161018f565b6101b46103e881565b6101de6101d936600461140c565b610c19565b60408051998a526001600160a01b0390981660208a0152968801959095526060870193909352608086019190915260a085015260c084015260e083015215156101008201526101200161018f565b6101b461023a36600461140c565b610c8e565b600154610252906001600160a01b031681565b6040516001600160a01b03909116815260200161018f565b61015a610df6565b6102527f000000000000000000000000000000000000000000000000000000000000000081565b61015a6102a7366004611436565b610e0a565b6101b462278d0081565b6101b460045481565b6101b462ed4e0081565b6000546001600160a01b0316610252565b6101b461271081565b6101b46276a70081565b61015a6102fb36600461130d565b611127565b61015a61030e366004611342565b61116b565b61015a610321366004611342565b611209565b6102527f000000000000000000000000000000000000000000000000000000000000000081565b610355611244565b33600090815260036020526040902054811061038c5760405162461bcd60e51b815260040161038390611458565b60405180910390fd5b3360009081526003602052604081208054839081106103ad576103ad611482565b60009182526020909120600990910201600881015490915060ff166104095760405162461bcd60e51b8152602060048201526012602482015271141bdcda5d1a5bdb881a5cc818db1bdcd95960721b6044820152606401610383565b60006104153384610c8e565b90506000811161045d5760405162461bcd60e51b81526020600482015260136024820152724e6f207265776172647320746f20636c61696d60681b6044820152606401610383565b43600683015560405163a9059cbb60e01b8152336004820152602481018290527f00000000000000000000000000000000000000000000000000000000000000006001600160a01b03169063a9059cbb906044016020604051808303816000875af11580156104d0573d6000803e3d6000fd5b505050506040513d601f19601f820116820180604052508101906104f49190611498565b6105395760405162461bcd60e51b815260206004820152601660248201527514995dd85c99081d1c985b9cd9995c8819985a5b195960521b6044820152606401610383565b604080518481526020810183905233917fdacbdde355ba930696a362ea6738feb9f8bd52dfb3d81947558fd3217e23e325910160405180910390a2505061058d600160008051602061153083398151915255565b50565b610598611244565b600081116105dd5760405162461bcd60e51b81526020600482015260126024820152710416d6f756e74206d757374206265203e20360741b6044820152606401610383565b6040516323b872dd60e01b8152336004820152306024820152604481018290527f00000000000000000000000000000000000000000000000000000000000000006001600160a01b0316906323b872dd906064016020604051808303816000875af1158015610650573d6000803e3d6000fd5b505050506040513d601f19601f820116820180604052508101906106749190611498565b6106b25760405162461bcd60e51b815260206004820152600f60248201526e151c985b9cd9995c8819985a5b1959608a1b6044820152606401610383565b61058d600160008051602061153083398151915255565b6001600160a01b0381166000908152600360209081526040808320805482518185028101850190935280835260609492939192909184015b82821015610797576000848152602090819020604080516101208101825260098602909201805483526001808201546001600160a01b0316848601526002820154928401929092526003810154606084015260048101546080840152600581015460a0840152600681015460c0840152600781015460e08401526008015460ff1615156101008301529083529092019101610701565b505050509050919050565b6107aa611244565b3360009081526003602052604090205481106107d85760405162461bcd60e51b815260040161038390611458565b3360009081526003602052604081208054839081106107f9576107f9611482565b60009182526020909120600990910201600881015490915060ff166108605760405162461bcd60e51b815260206004820152601a60248201527f506f736974696f6e20697320616c726561647920636c6f7365640000000000006044820152606401610383565b600061086c3384610c8e565b9050801561098c5743600683015560405163a9059cbb60e01b8152336004820152602481018290527f00000000000000000000000000000000000000000000000000000000000000006001600160a01b03169063a9059cbb906044016020604051808303816000875af11580156108e7573d6000803e3d6000fd5b505050506040513d601f19601f8201168201806040525081019061090b9190611498565b6109505760405162461bcd60e51b815260206004820152601660248201527514995dd85c99081d1c985b9cd9995c8819985a5b195960521b6044820152606401610383565b604080518481526020810183905233917fdacbdde355ba930696a362ea6738feb9f8bd52dfb3d81947558fd3217e23e325910160405180910390a25b60088201805460ff191690556002820154600480546000906109af9084906114d0565b909155505060028201546005830154600090421015610ade576127106103e885600201546109dd91906114e3565b6109e791906114fa565b90508084600201546109f991906114d0565b60015460405163a9059cbb60e01b81526001600160a01b039182166004820152602481018490529193507f0000000000000000000000000000000000000000000000000000000000000000169063a9059cbb906044016020604051808303816000875af1158015610a6e573d6000803e3d6000fd5b505050506040513d601f19601f82011682018060405250810190610a929190611498565b610ade5760405162461bcd60e51b815260206004820152601760248201527f50656e616c7479207472616e73666572206661696c65640000000000000000006044820152606401610383565b60405163a9059cbb60e01b8152336004820152602481018390527f00000000000000000000000000000000000000000000000000000000000000006001600160a01b03169063a9059cbb906044016020604051808303816000875af1158015610b4b573d6000803e3d6000fd5b505050506040513d601f19601f82011682018060405250810190610b6f9190611498565b610bbb5760405162461bcd60e51b815260206004820152601760248201527f556e7374616b65207472616e73666572206661696c65640000000000000000006044820152606401610383565b604080518681526020810184905290810182905233907f204fccf0d92ed8d48f204adb39b2e81e92bad0dedb93f5716ca9478cfb57de009060600160405180910390a25050505061058d600160008051602061153083398151915255565b60036020528160005260406000208181548110610c3557600080fd5b60009182526020909120600990910201805460018201546002830154600384015460048501546005860154600687015460078801546008909801549699506001600160a01b039095169750929591949093919060ff1689565b6001600160a01b0382166000908152600360205260408120548210610cc55760405162461bcd60e51b815260040161038390611458565b6001600160a01b0383166000908152600360205260408120805484908110610cef57610cef611482565b6000918252602091829020604080516101208101825260099093029091018054835260018101546001600160a01b0316938301939093526002830154908201526003820154606082015260048201546080820152600582015460a0820152600682015460c0820152600782015460e082015260089091015460ff1615801561010083015290915080610d8557508060c001514311155b15610d94576000915050610df0565b60008160c0015143610da691906114d0565b9050600068056bc75e2d631000008360e00151836002548660400151610dcc91906114e3565b610dd691906114e3565b610de091906114e3565b610dea91906114fa565b93505050505b92915050565b610dfe611260565b610e08600061128d565b565b610e12611244565b60008211610e575760405162461bcd60e51b81526020600482015260126024820152710416d6f756e74206d757374206265203e20360741b6044820152606401610383565b62278d00811480610e6a57506276a70081145b80610e77575062ed4e0081145b610eb95760405162461bcd60e51b8152602060048201526013602482015272125b9d985b1a59081b1bd8dac81c195c9a5bd9606a1b6044820152606401610383565b60646276a6ff198201610ece57506096610edc565b62ed4e008203610edc575060c85b6040516323b872dd60e01b8152336004820152306024820152604481018490527f00000000000000000000000000000000000000000000000000000000000000006001600160a01b0316906323b872dd906064016020604051808303816000875af1158015610f4f573d6000803e3d6000fd5b505050506040513d601f19601f82011682018060405250810190610f739190611498565b610fb15760405162461bcd60e51b815260206004820152600f60248201526e151c985b9cd9995c8819985a5b1959608a1b6044820152606401610383565b3360008181526003602090815260409182902080548351610120810185528181529283019490945291810186905260608101859052426080820181905260a0820190610ffe90879061151c565b81524360208083019190915260408083018790526001606093840181905285548082018755600096875283872086516009909202019081559285015190830180546001600160a01b0319166001600160a01b039092169190911790558301516002820155908201516003820155608082015160048083019190915560a0830151600583015560c0830151600683015560e08301516007830155610100909201516008909101805460ff191691151591909117905580548692906110c290849061151c565b9091555050604080518281526020810186905290810184905233907fb4caaf29adda3eefee3ad552a8e85058589bf834c7466cae4ee58787f70589ed9060600160405180910390a25050611123600160008051602061153083398151915255565b5050565b61112f611260565b60028190556040518181527fcc2bd4d23067e9c27c58c14ba7cd3ad43bf3d812e75a9c748963d84b2cabe9ad906020015b60405180910390a150565b611173611260565b6001600160a01b0381166111bb5760405162461bcd60e51b815260206004820152600f60248201526e496e76616c6964206164647265737360881b6044820152606401610383565b600180546001600160a01b0319166001600160a01b0383169081179091556040519081527f7dae230f18360d76a040c81f050aa14eb9d6dc7901b20fc5d855e2a20fe814d190602001611160565b611211611260565b6001600160a01b03811661123b57604051631e4fbdf760e01b815260006004820152602401610383565b61058d8161128d565b61124c6112dd565b600260008051602061153083398151915255565b6000546001600160a01b03163314610e085760405163118cdaa760e01b8152336004820152602401610383565b600080546001600160a01b038381166001600160a01b0319831681178455604051919092169283917f8be0079c531659141344cd1fd0a4f28419497f9722a3daafe3b4186f6b6457e09190a35050565b60008051602061153083398151915254600203610e0857604051633ee5aeb560e01b815260040160405180910390fd5b60006020828403121561131f57600080fd5b5035919050565b80356001600160a01b038116811461133d57600080fd5b919050565b60006020828403121561135457600080fd5b61135d82611326565b9392505050565b602080825282518282018190526000918401906040840190835b818110156114015783518051845260018060a01b03602082015116602085015260408101516040850152606081015160608501526080810151608085015260a081015160a085015260c081015160c085015260e081015160e08501526101008101511515610100850152506101208301925060208401935060018101905061137e565b509095945050505050565b6000806040838503121561141f57600080fd5b61142883611326565b946020939093013593505050565b6000806040838503121561144957600080fd5b50508035926020909101359150565b60208082526010908201526f24b73b30b634b2103837b9b4ba34b7b760811b604082015260600190565b634e487b7160e01b600052603260045260246000fd5b6000602082840312156114aa57600080fd5b8151801515811461135d57600080fd5b634e487b7160e01b600052601160045260246000fd5b81810381811115610df057610df06114ba565b8082028115828204841417610df057610df06114ba565b60008261151757634e487b7160e01b600052601260045260246000fd5b500490565b80820180821115610df057610df06114ba56fe9b779b17422d0df92223018b32b4d1fa46e071723d6817e2486d003becc55f00a264697066735822122090bc2d46a40df5da7a09cf11138523c5894a119b22a18a5d52704c7bfc42e90e64736f6c634300081c0033",
  "linkReferences": {},
  "deployedLinkReferences": {},
  "immutableReferences": {
    "504": [
      {
        "length": 32,
        "start": 631
      },
      {
        "length": 32,
        "start": 2597
      },
      {
        "length": 32,
        "start": 2810
      },
      {
        "length": 32,
        "start": 3838
      }
    ],
    "507": [
      {
        "length": 32,
        "start": 811
      },
      {
        "length": 32,
        "start": 1151
      },
      {
        "length": 32,
        "start": 1535
      },
      {
        "length": 32,
        "start": 2198
      }
    ]
  },
  "inputSourceName": "project/contracts/VaultXStaking.sol",
  "buildInfoId": "solc-0_8_28-cb7fc4a1c685dd5a0a8231e7cb73b6cb394d8d36"
}