{
  "_format": "hh3-artifact-1",
  "contractName": "PresaleVault",
  "sourceName": "contracts/PresaleVault.sol",
  "abi": [
    {
      "inputs": [
        {
          "internalType": "address",
          "name": "_tokenAddress",
          "type": "address"
        },
        {
          "internalType": "uint256",
          "name": "_preSeedPrice",
          "type": "uint256"
        },
        {
          "internalType": "uint256",
          "name": "_seedPrice",
          "type": "uint256"
        },
        {
          "internalType": "uint256",
          "name": "_publicPrice",
          "type": "uint256"
        }
      ],
      "stateMutability": "nonpayable",
      "type": "constructor"
    },
    {
      "inputs": [
        {
          "internalType": "address",
          "name": "owner",
          "type": "address"
        }
      ],
      "name": "OwnableInvalidOwner",
      "type": "error"
    },
    {
      "inputs": [
        {
          "internalType": "address",
          "name": "account",
          "type": "address"
        }
      ],
      "name": "OwnableUnauthorizedAccount",
      "type": "error"
    },
    {
      "inputs": [],
      "name": "ReentrancyGuardReentrantCall",
      "type": "error"
    },
    {
      "anonymous": false,
      "inputs": [
        {
          "indexed": true,
          "internalType": "address",
          "name": "previousOwner",
          "type": "address"
        },
        {
          "indexed": true,
          "internalType": "address",
          "name": "newOwner",
          "type": "address"
        }
      ],
      "name": "OwnershipTransferred",
      "type": "event"
    },
    {
      "anonymous": false,
      "inputs": [
        {
          "indexed": false,
          "internalType": "enum PresaleVault.Round",
          "name": "round",
          "type": "uint8"
        }
      ],
      "name": "RoundClosed",
      "type": "event"
    },
    {
      "anonymous": false,
      "inputs": [
        {
          "indexed": false,
          "internalType": "enum PresaleVault.Round",
          "name": "round",
          "type": "uint8"
        }
      ],
      "name": "RoundOpened",
      "type": "event"
    },
    {
      "anonymous": false,
      "inputs": [
        {
          "indexed": true,
          "internalType": "address",
          "name": "buyer",
          "type": "address"
        },
        {
          "indexed": false,
          "internalType": "uint256",
          "name": "amountPaid",
          "type": "uint256"
        },
        {
          "indexed": false,
          "internalType": "uint256",
          "name": "tokensAllocated",
          "type": "uint256"
        },
        {
          "indexed": false,
          "internalType": "enum PresaleVault.Round",
          "name": "round",
          "type": "uint8"
        }
      ],
      "name": "TokensPurchased",
      "type": "event"
    },
    {
      "anonymous": false,
      "inputs": [
        {
          "indexed": true,
          "internalType": "address",
          "name": "beneficiary",
          "type": "address"
        },
        {
          "indexed": false,
          "internalType": "uint256",
          "name": "amount",
          "type": "uint256"
        }
      ],
      "name": "VestingClaimed",
      "type": "event"
    },
    {
      "inputs": [],
      "name": "MONTH_IN_SECONDS",
      "outputs": [
        {
          "internalType": "uint256",
          "name": "",
          "type": "uint256"
        }
      ],
      "stateMutability": "view",
      "type": "function"
    },
    {
      "inputs": [
        {
          "internalType": "bytes32[]",
          "name": "merkleProof",
          "type": "bytes32[]"
        }
      ],
      "name": "buyTokens",
      "outputs": [],
      "stateMutability": "payable",
      "type": "function"
    },
    {
      "inputs": [],
      "name": "claimVested",
      "outputs": [],
      "stateMutability": "nonpayable",
      "type": "function"
    },
    {
      "inputs": [],
      "name": "cliffDuration",
      "outputs": [
        {
          "internalType": "uint256",
          "name": "",
          "type": "uint256"
        }
      ],
      "stateMutability": "view",
      "type": "function"
    },
    {
      "inputs": [],
      "name": "currentRound",
      "outputs": [
        {
          "internalType": "enum PresaleVault.Round",
          "name": "",
          "type": "uint8"
        }
      ],
      "stateMutability": "view",
      "type": "function"
    },
    {
      "inputs": [
        {
          "internalType": "address",
          "name": "account",
          "type": "address"
        }
      ],
      "name": "getVestedAmount",
      "outputs": [
        {
          "internalType": "uint256",
          "name": "",
          "type": "uint256"
        }
      ],
      "stateMutability": "view",
      "type": "function"
    },
    {
      "inputs": [],
      "name": "owner",
      "outputs": [
        {
          "internalType": "address",
          "name": "",
          "type": "address"
        }
      ],
      "stateMutability": "view",
      "type": "function"
    },
    {
      "inputs": [],
      "name": "preSeedMerkleRoot",
      "outputs": [
        {
          "internalType": "bytes32",
          "name": "",
          "type": "bytes32"
        }
      ],
      "stateMutability": "view",
      "type": "function"
    },
    {
      "inputs": [],
      "name": "preSeedPrice",
      "outputs": [
        {
          "internalType": "uint256",
          "name": "",
          "type": "uint256"
        }
      ],
      "stateMutability": "view",
      "type": "function"
    },
    {
      "inputs": [],
      "name": "publicPrice",
      "outputs": [
        {
          "internalType": "uint256",
          "name": "",
          "type": "uint256"
        }
      ],
      "stateMutability": "view",
      "type": "function"
    },
    {
      "inputs": [],
      "name": "renounceOwnership",
      "outputs": [],
      "stateMutability": "nonpayable",
      "type": "function"
    },
    {
      "inputs": [],
      "name": "seedMerkleRoot",
      "outputs": [
        {
          "internalType": "bytes32",
          "name": "",
          "type": "bytes32"
        }
      ],
      "stateMutability": "view",
      "type": "function"
    },
    {
      "inputs": [],
      "name": "seedPrice",
      "outputs": [
        {
          "internalType": "uint256",
          "name": "",
          "type": "uint256"
        }
      ],
      "stateMutability": "view",
      "type": "function"
    },
    {
      "inputs": [
        {
          "internalType": "bytes32",
          "name": "_preSeedMerkleRoot",
          "type": "bytes32"
        },
        {
          "internalType": "bytes32",
          "name": "_seedMerkleRoot",
          "type": "bytes32"
        }
      ],
      "name": "setMerkleRoots",
      "outputs": [],
      "stateMutability": "nonpayable",
      "type": "function"
    },
    {
      "inputs": [
        {
          "internalType": "enum PresaleVault.Round",
          "name": "newRound",
          "type": "uint8"
        }
      ],
      "name": "setRound",
      "outputs": [],
      "stateMutability": "nonpayable",
      "type": "function"
    },
    {
      "inputs": [
        {
          "internalType": "uint256",
          "name": "_vestingStartTime",
          "type": "uint256"
        },
        {
          "internalType": "uint256",
          "name": "_cliffDuration",
          "type": "uint256"
        },
        {
          "internalType": "uint256",
          "name": "_vestingDuration",
          "type": "uint256"
        }
      ],
      "name": "setVestingParams",
      "outputs": [],
      "stateMutability": "nonpayable",
      "type": "function"
    },
    {
      "inputs": [],
      "name": "token",
      "outputs": [
        {
          "internalType": "contract IERC20",
          "name": "",
          "type": "address"
        }
      ],
      "stateMutability": "view",
      "type": "function"
    },
    {
      "inputs": [],
      "name": "totalAllocatedTokens",
      "outputs": [
        {
          "internalType": "uint256",
          "name": "",
          "type": "uint256"
        }
      ],
      "stateMutability": "view",
      "type": "function"
    },
    {
      "inputs": [
        {
          "internalType": "address",
          "name": "newOwner",
          "type": "address"
        }
      ],
      "name": "transferOwnership",
      "outputs": [],
      "stateMutability": "nonpayable",
      "type": "function"
    },
    {
      "inputs": [],
      "name": "vestingDuration",
      "outputs": [
        {
          "internalType": "uint256",
          "name": "",
          "type": "uint256"
        }
      ],
      "stateMutability": "view",
      "type": "function"
    },
    {
      "inputs": [
        {
          "internalType": "address",
          "name": "",
          "type": "address"
        }
      ],
      "name": "vestingSchedules",
      "outputs": [
        {
          "internalType": "uint256",
          "name": "totalAllocated",
          "type": "uint256"
        },
        {
          "internalType": "uint256",
          "name": "totalClaimed",
          "type": "uint256"
        }
      ],
      "stateMutability": "view",
      "type": "function"
    },
    {
      "inputs": [],
      "name": "vestingStartTime",
      "outputs": [
        {
          "internalType": "uint256",
          "name": "",
          "type": "uint256"
        }
      ],
      "stateMutability": "view",
      "type": "function"
    },
    {
      "inputs": [],
      "name": "withdrawFunds",
      "outputs": [],
      "stateMutability": "nonpayable",
      "type": "function"
    },
    {
      "inputs": [],
      "name": "withdrawUnsoldTokens",
      "outputs": [],
      "stateMutability": "nonpayable",
      "type": "function"
    }
  ],
  "bytecode": "0x60a060405234801561000f575f5ffd5b5060405161168838038061168883398101604081905261002e916101ab565b338061005457604051631e4fbdf760e01b81525f60048201526024015b60405180910390fd5b61005d8161015c565b5060017f9b779b17422d0df92223018b32b4d1fa46e071723d6817e2486d003becc55f00556001600160a01b0384166100d85760405162461bcd60e51b815260206004820152601560248201527f496e76616c696420746f6b656e20616464726573730000000000000000000000604482015260640161004b565b5f831180156100e657505f82115b80156100f157505f81115b6101325760405162461bcd60e51b81526020600482015260126024820152710507269636573206d757374206265203e20360741b604482015260640161004b565b6001600160a01b03939093166080526001919091556002556003556006805460ff191690556101f2565b5f80546001600160a01b038381166001600160a01b0319831681178455604051919092169283917f8be0079c531659141344cd1fd0a4f28419497f9722a3daafe3b4186f6b6457e09190a35050565b5f5f5f5f608085870312156101be575f5ffd5b84516001600160a01b03811681146101d4575f5ffd5b60208601516040870151606090970151919890975090945092505050565b6080516114626102265f395f8181610398015281816108a701528181610a0801528181610aea0152610dc201526114625ff3fe608060405260043610610147575f3560e01c8063a945bf80116100b3578063d01c44cd1161006d578063d01c44cd14610320578063d5a73fdd14610334578063d85349f714610353578063f2fde38b14610368578063fc0c546a14610387578063fdb20ccb146103ba575f5ffd5b8063a945bf801461029b578063ab98089f146102b0578063bc8287b5146102c3578063c56a494e146102d8578063c8bdbfb6146102ed578063cbd5bb2b14610301575f5ffd5b80637171225c116101045780637171225c146101e65780637e34cd3d146101fc5780638a19c8bc146102115780638da5cb5b146102375780639a48eb5114610267578063a8660a7814610286575f5ffd5b80630c195d991461014b57806311d98f54146101735780631514617e1461018857806324600fc31461019d5780632b2f4d84146101b3578063715018a6146101d2575b5f5ffd5b348015610156575f5ffd5b50610160600a5481565b6040519081526020015b60405180910390f35b34801561017e575f5ffd5b5061016060015481565b348015610193575f5ffd5b5061016060095481565b3480156101a8575f5ffd5b506101b1610401565b005b3480156101be575f5ffd5b506101b16101cd3660046111f7565b6104de565b3480156101dd575f5ffd5b506101b1610543565b3480156101f1575f5ffd5b5061016062278d0081565b348015610207575f5ffd5b5061016060025481565b34801561021c575f5ffd5b5060065461022a9060ff1681565b60405161016a9190611254565b348015610242575f5ffd5b505f546001600160a01b03165b6040516001600160a01b03909116815260200161016a565b348015610272575f5ffd5b506101b1610281366004611262565b610556565b348015610291575f5ffd5b5061016060075481565b3480156102a6575f5ffd5b5061016060035481565b6101b16102be366004611282565b610569565b3480156102ce575f5ffd5b5061016060045481565b3480156102e3575f5ffd5b5061016060055481565b3480156102f8575f5ffd5b506101b16109e9565b34801561030c575f5ffd5b506101b161031b3660046112f3565b610ba0565b34801561032b575f5ffd5b506101b1610c7c565b34801561033f575f5ffd5b5061016061034e366004611311565b610ec6565b34801561035e575f5ffd5b5061016060085481565b348015610373575f5ffd5b506101b1610382366004611311565b610fd8565b348015610392575f5ffd5b5061024f7f000000000000000000000000000000000000000000000000000000000000000081565b3480156103c5575f5ffd5b506103ec6103d4366004611311565b600b6020525f90815260409020805460019091015482565b6040805192835260208301919091520161016a565b610409611012565b47806104535760405162461bcd60e51b81526020600482015260146024820152734e6f2066756e647320746f20776974686472617760601b60448201526064015b60405180910390fd5b6040515f90339083908381818185875af1925050503d805f8114610492576040519150601f19603f3d011682016040523d82523d5f602084013e610497565b606091505b50509050806104da5760405162461bcd60e51b815260206004820152600f60248201526e15da5d1a191c985dc819985a5b1959608a1b604482015260640161044a565b5050565b6104e6611012565b5f81116105355760405162461bcd60e51b815260206004820152601c60248201527f56657374696e67206475726174696f6e206d757374206265203e203000000000604482015260640161044a565b600792909255600855600955565b61054b611012565b6105545f61103e565b565b61055e611012565b600491909155600555565b61057161108d565b60065460ff165f81600381111561058a5761058a611220565b036105cf5760405162461bcd60e51b815260206004820152601560248201527450726573616c65206973206e6f742061637469766560581b604482015260640161044a565b5f34116106125760405162461bcd60e51b815260206004820152601160248201527026bab9ba1039b2b7321022aa2417a1272160791b604482015260640161044a565b5f600182600381111561062757610627611220565b036106fb5760045461067b5760405162461bcd60e51b815260206004820152601b60248201527f5072652d736565642077686974656c6973742064697361626c65640000000000604482015260640161044a565b6106893385856004546110a8565b6106d55760405162461bcd60e51b815260206004820152601960248201527f4e6f7420696e207072652d736565642077686974656c69737400000000000000604482015260640161044a565b6001546106ea34670de0b6b3a764000061134b565b6106f49190611362565b9050610830565b600282600381111561070f5761070f611220565b036107ca576005546107635760405162461bcd60e51b815260206004820152601760248201527f536565642077686974656c6973742064697361626c6564000000000000000000604482015260640161044a565b6107713385856005546110a8565b6107b55760405162461bcd60e51b8152602060048201526015602482015274139bdd081a5b881cd95959081dda1a5d195b1a5cdd605a1b604482015260640161044a565b6002546106ea34670de0b6b3a764000061134b565b60038260038111156107de576107de611220565b036107f8576003546106ea34670de0b6b3a764000061134b565b60405162461bcd60e51b815260206004820152600d60248201526c155b9adb9bdddb881c9bdd5b99609a1b604482015260640161044a565b5f81116108765760405162461bcd60e51b8152602060048201526014602482015273125b9cdd59999a58da595b9d081c185e5b595b9d60621b604482015260640161044a565b5f81600a546108859190611381565b6040516370a0823160e01b815230600482015290915081906001600160a01b037f000000000000000000000000000000000000000000000000000000000000000016906370a0823190602401602060405180830381865afa1580156108ec573d5f5f3e3d5ffd5b505050506040513d601f19601f820116820180604052508101906109109190611394565b101561096a5760405162461bcd60e51b815260206004820152602360248201527f496e73756666696369656e7420636f6e7472616374207661756c742062616c616044820152626e636560e81b606482015260840161044a565b600a819055335f908152600b60205260408120805484929061098d908490611381565b909155505060405133907f07bd967119635e499edb871f00e988945fc967531c4dfa79a630a18ed98cf1eb906109c8903490869088906113ab565b60405180910390a25050506104da60015f51602061140d5f395f51905f5255565b6109f1611012565b6040516370a0823160e01b81523060048201525f907f00000000000000000000000000000000000000000000000000000000000000006001600160a01b0316906370a0823190602401602060405180830381865afa158015610a55573d5f5f3e3d5ffd5b505050506040513d601f19601f82011682018060405250810190610a799190611394565b90505f600a5482610a8a91906113c6565b90505f8111610ace5760405162461bcd60e51b815260206004820152601060248201526f4e6f20756e736f6c6420746f6b656e7360801b604482015260640161044a565b60405163a9059cbb60e01b8152336004820152602481018290527f00000000000000000000000000000000000000000000000000000000000000006001600160a01b03169063a9059cbb906044016020604051808303815f875af1158015610b38573d5f5f3e3d5ffd5b505050506040513d601f19601f82011682018060405250810190610b5c91906113d9565b6104da5760405162461bcd60e51b8152602060048201526015602482015274151bdad95b881d1c985b9cd9995c8819985a5b1959605a1b604482015260640161044a565b610ba8611012565b5f60065460ff166003811115610bc057610bc0611220565b14610c05576006546040517f119af92bd6e03b95e0353ae7fbc76a36311cc601882e288fdfb2f48428a9f01c91610bfc9160ff90911690611254565b60405180910390a15b6006805482919060ff19166001836003811115610c2457610c24611220565b02179055505f816003811115610c3c57610c3c611220565b14610c79577f63376ab9df75a8554f68db0f200649c4da59cd621fb3ba9e7d707454c6df77ec81604051610c709190611254565b60405180910390a15b50565b610c8461108d565b5f60075411610cce5760405162461bcd60e51b815260206004820152601660248201527515995cdd1a5b99c81b9bdd0818dbdb999a59dd5c995960521b604482015260640161044a565b335f908152600b602052604090208054610d205760405162461bcd60e51b8152602060048201526013602482015272139bc81d1bdad95b9cc8185b1b1bd8d85d1959606a1b604482015260640161044a565b5f610d2a33610ec6565b90505f826001015482610d3d91906113c6565b90505f8111610d8e5760405162461bcd60e51b815260206004820152601f60248201527f4e6f7468696e6720746f20636c61696d2061742074686973206d6f6d656e7400604482015260640161044a565b80836001015f828254610da19190611381565b909155505060405163a9059cbb60e01b8152336004820152602481018290527f00000000000000000000000000000000000000000000000000000000000000006001600160a01b03169063a9059cbb906044016020604051808303815f875af1158015610e10573d5f5f3e3d5ffd5b505050506040513d601f19601f82011682018060405250810190610e3491906113d9565b610e785760405162461bcd60e51b8152602060048201526015602482015274151bdad95b881d1c985b9cd9995c8819985a5b1959605a1b604482015260640161044a565b60405181815233907f9fe9b7be9d151c7a8b6de49a1312ff27a15096d0d1d12999af85fe4310e0b1259060200160405180910390a250505061055460015f51602061140d5f395f51905f5255565b6001600160a01b0381165f908152600b602090815260408083208151808301909252805480835260019091015492820192909252908203610f0957505f92915050565b6007541580610f265750600854600754610f239190611381565b42105b15610f3357505f92915050565b600954600854600754610f469190611381565b610f509190611381565b4210610f5d575192915050565b5f600854600754610f6e9190611381565b610f7890426113c6565b90505f610f8862278d0083611362565b90505f62278d00600954610f9c9190611362565b9050805f03610fc9576009548451610fb590859061134b565b610fbf9190611362565b9695505050505050565b83518190610fb590849061134b565b610fe0611012565b6001600160a01b03811661100957604051631e4fbdf760e01b81525f600482015260240161044a565b610c798161103e565b5f546001600160a01b031633146105545760405163118cdaa760e01b815233600482015260240161044a565b5f80546001600160a01b038381166001600160a01b0319831681178455604051919092169283917f8be0079c531659141344cd1fd0a4f28419497f9722a3daafe3b4186f6b6457e09190a35050565b611095611140565b60025f51602061140d5f395f51905f5255565b604080516001600160a01b03861660208201525f9182910160408051601f19818403018152828252805160209182012090830152016040516020818303038152906040528051906020012090506111348585808060200260200160405190810160405280939291908181526020018383602002808284375f9201919091525087925085915061116f9050565b9150505b949350505050565b5f51602061140d5f395f51905f525460020361055457604051633ee5aeb560e01b815260040160405180910390fd5b5f8261117b8584611184565b14949350505050565b5f81815b84518110156111be576111b4828683815181106111a7576111a76113f8565b60200260200101516111c8565b9150600101611188565b5090505b92915050565b5f8183106111e2575f8281526020849052604090206111f0565b5f8381526020839052604090205b9392505050565b5f5f5f60608486031215611209575f5ffd5b505081359360208301359350604090920135919050565b634e487b7160e01b5f52602160045260245ffd5b6004811061125057634e487b7160e01b5f52602160045260245ffd5b9052565b602081016111c28284611234565b5f5f60408385031215611273575f5ffd5b50508035926020909101359150565b5f5f60208385031215611293575f5ffd5b823567ffffffffffffffff8111156112a9575f5ffd5b8301601f810185136112b9575f5ffd5b803567ffffffffffffffff8111156112cf575f5ffd5b8560208260051b84010111156112e3575f5ffd5b6020919091019590945092505050565b5f60208284031215611303575f5ffd5b8135600481106111f0575f5ffd5b5f60208284031215611321575f5ffd5b81356001600160a01b03811681146111f0575f5ffd5b634e487b7160e01b5f52601160045260245ffd5b80820281158282048414176111c2576111c2611337565b5f8261137c57634e487b7160e01b5f52601260045260245ffd5b500490565b808201808211156111c2576111c2611337565b5f602082840312156113a4575f5ffd5b5051919050565b83815260208101839052606081016111386040830184611234565b818103818111156111c2576111c2611337565b5f602082840312156113e9575f5ffd5b815180151581146111f0575f5ffd5b634e487b7160e01b5f52603260045260245ffdfe9b779b17422d0df92223018b32b4d1fa46e071723d6817e2486d003becc55f00a264697066735822122012f94b57e6bd010c8fc516fbf690f58af224b56ce4aed746fa2e8583459d8b5464736f6c634300081c0033",
  "linkReferences": {},
  "deployedLinkReferences": {},
  "immutableReferences": {
    "1623": [
      {
        "length": 32,
        "start": 920
      },
      {
        "length": 32,
        "start": 2215
      },
      {
        "length": 32,
        "start": 2568
      },
      {
        "length": 32,
        "start": 2794
      },
      {
        "length": 32,
        "start": 3522
      }
    ]
  },
  "inputSourceName": "project/contracts/PresaleVault.sol",
  "buildInfoId": "solc-0_8_28-806235789a502fbfdf4230be2c8bc34e88ccbcbc"
}